{
  "contractName": "CertificatoCorsoViLear",
  "abi": [
    {
      "inputs": [
        {
          "internalType": "address",
          "name": "certificatoAddress",
          "type": "address"
        }
      ],
      "stateMutability": "nonpayable",
      "type": "constructor"
    },
    {
      "anonymous": false,
      "inputs": [
        {
          "indexed": false,
          "internalType": "uint256",
          "name": "idCertificato",
          "type": "uint256"
        },
        {
          "indexed": false,
          "internalType": "address",
          "name": "wallet",
          "type": "address"
        },
        {
          "indexed": false,
          "internalType": "string",
          "name": "certificatoToString",
          "type": "string"
        }
      ],
      "name": "CertificatoCreatoFatto",
      "type": "event"
    },
    {
      "inputs": [
        {
          "internalType": "address",
          "name": "",
          "type": "address"
        },
        {
          "internalType": "uint256",
          "name": "",
          "type": "uint256"
        }
      ],
      "name": "_infoUtenteWithCertificati",
      "outputs": [
        {
          "internalType": "string",
          "name": "nomeCorso",
          "type": "string"
        },
        {
          "internalType": "string",
          "name": "pubblicazioneData",
          "type": "string"
        },
        {
          "internalType": "string",
          "name": "DateUtente",
          "type": "string"
        },
        {
          "internalType": "string",
          "name": "DateTeacher",
          "type": "string"
        },
        {
          "internalType": "bytes32",
          "name": "firma",
          "type": "bytes32"
        }
      ],
      "stateMutability": "view",
      "type": "function",
      "constant": true
    },
    {
      "inputs": [],
      "name": "certificato",
      "outputs": [
        {
          "internalType": "contract CertificatoCorso",
          "name": "",
          "type": "address"
        }
      ],
      "stateMutability": "view",
      "type": "function",
      "constant": true
    },
    {
      "inputs": [
        {
          "internalType": "uint256",
          "name": "idCertificato",
          "type": "uint256"
        },
        {
          "internalType": "string",
          "name": "_nomeCorso",
          "type": "string"
        },
        {
          "internalType": "string",
          "name": "_pubblicazioneData",
          "type": "string"
        },
        {
          "internalType": "string",
          "name": "_infoUtente",
          "type": "string"
        },
        {
          "internalType": "string",
          "name": "_infoTeacher",
          "type": "string"
        }
      ],
      "name": "registraCertificato",
      "outputs": [
        {
          "internalType": "bool",
          "name": "",
          "type": "bool"
        }
      ],
      "stateMutability": "nonpayable",
      "type": "function"
    },
    {
      "inputs": [
        {
          "internalType": "uint256",
          "name": "idCertificato",
          "type": "uint256"
        }
      ],
      "name": "getCertificato",
      "outputs": [
        {
          "internalType": "string",
          "name": "",
          "type": "string"
        }
      ],
      "stateMutability": "view",
      "type": "function",
      "constant": true
    }
  ],
  "bytecode": "0x60806040523480156200001157600080fd5b50604051620015eb380380620015eb8339818101604052810190620000379190620000e8565b806000806101000a81548173ffffffffffffffffffffffffffffffffffffffff021916908373ffffffffffffffffffffffffffffffffffffffff160217905550506200011a565b600080fd5b600073ffffffffffffffffffffffffffffffffffffffff82169050919050565b6000620000b08262000083565b9050919050565b620000c281620000a3565b8114620000ce57600080fd5b50565b600081519050620000e281620000b7565b92915050565b6000602082840312156200010157620001006200007e565b5b60006200011184828501620000d1565b91505092915050565b6114c1806200012a6000396000f3fe608060405234801561001057600080fd5b506004361061004c5760003560e01c8063d16ad45514610051578063da8548c714610081578063ea6ee0e9146100b1578063f9949445146100e5575b600080fd5b61006b60048036038101906100669190610a13565b610103565b6040516100789190610b19565b60405180910390f35b61009b60048036038101906100969190610b34565b6102bc565b6040516100a89190610be0565b60405180910390f35b6100cb60048036038101906100c69190610c60565b6105bd565b6040516100dc959493929190610cb9565b60405180910390f35b6100ed610820565b6040516100fa9190610d87565b60405180910390f35b60008060008054906101000a900473ffffffffffffffffffffffffffffffffffffffff1673ffffffffffffffffffffffffffffffffffffffff1663607afca388888888886040518663ffffffff1660e01b8152600401610167959493929190610db1565b600060405180830381865afa158015610184573d6000803e3d6000fd5b505050506040513d6000823e3d601f19601f820116820180604052508101906101ad9190610fc2565b905080600160003373ffffffffffffffffffffffffffffffffffffffff1673ffffffffffffffffffffffffffffffffffffffff16815260200190815260200160002060008981526020019081526020016000206000820151816000019081610215919061120d565b50602082015181600101908161022b919061120d565b506040820151816002019081610241919061120d565b506060820151816003019081610257919061120d565b5060808201518160040155905050600061027082610844565b90507f86b8c9a0013d2456591ae51347476d48de75f275fca6e4d2b74b4c956f18239d8833836040516102a5939291906112ee565b60405180910390a160019250505095945050505050565b606060008211610301576040517f08c379a00000000000000000000000000000000000000000000000000000000081526004016102f89061139e565b60405180910390fd5b6105b6600160003373ffffffffffffffffffffffffffffffffffffffff1673ffffffffffffffffffffffffffffffffffffffff16815260200190815260200160002060008481526020019081526020016000206040518060a001604052908160008201805461036f9061103a565b80601f016020809104026020016040519081016040528092919081815260200182805461039b9061103a565b80156103e85780601f106103bd576101008083540402835291602001916103e8565b820191906000526020600020905b8154815290600101906020018083116103cb57829003601f168201915b505050505081526020016001820180546104019061103a565b80601f016020809104026020016040519081016040528092919081815260200182805461042d9061103a565b801561047a5780601f1061044f5761010080835404028352916020019161047a565b820191906000526020600020905b81548152906001019060200180831161045d57829003601f168201915b505050505081526020016002820180546104939061103a565b80601f01602080910402602001604051908101604052809291908181526020018280546104bf9061103a565b801561050c5780601f106104e15761010080835404028352916020019161050c565b820191906000526020600020905b8154815290600101906020018083116104ef57829003601f168201915b505050505081526020016003820180546105259061103a565b80601f01602080910402602001604051908101604052809291908181526020018280546105519061103a565b801561059e5780601f106105735761010080835404028352916020019161059e565b820191906000526020600020905b81548152906001019060200180831161058157829003601f168201915b50505050508152602001600482015481525050610844565b9050919050565b6001602052816000526040600020602052806000526040600020600091509150508060000180546105ed9061103a565b80601f01602080910402602001604051908101604052809291908181526020018280546106199061103a565b80156106665780601f1061063b57610100808354040283529160200191610666565b820191906000526020600020905b81548152906001019060200180831161064957829003601f168201915b50505050509080600101805461067b9061103a565b80601f01602080910402602001604051908101604052809291908181526020018280546106a79061103a565b80156106f45780601f106106c9576101008083540402835291602001916106f4565b820191906000526020600020905b8154815290600101906020018083116106d757829003601f168201915b5050505050908060020180546107099061103a565b80601f01602080910402602001604051908101604052809291908181526020018280546107359061103a565b80156107825780601f1061075757610100808354040283529160200191610782565b820191906000526020600020905b81548152906001019060200180831161076557829003601f168201915b5050505050908060030180546107979061103a565b80601f01602080910402602001604051908101604052809291908181526020018280546107c39061103a565b80156108105780601f106107e557610100808354040283529160200191610810565b820191906000526020600020905b8154815290600101906020018083116107f357829003601f168201915b5050505050908060040154905085565b60008054906101000a900473ffffffffffffffffffffffffffffffffffffffff1681565b6060816000015182602001518360400151846060015160405160200161086d9493929190611420565b6040516020818303038152906040529050919050565b6000604051905090565b600080fd5b600080fd5b6000819050919050565b6108aa81610897565b81146108b557600080fd5b50565b6000813590506108c7816108a1565b92915050565b600080fd5b600080fd5b6000601f19601f8301169050919050565b7f4e487b7100000000000000000000000000000000000000000000000000000000600052604160045260246000fd5b610920826108d7565b810181811067ffffffffffffffff8211171561093f5761093e6108e8565b5b80604052505050565b6000610952610883565b905061095e8282610917565b919050565b600067ffffffffffffffff82111561097e5761097d6108e8565b5b610987826108d7565b9050602081019050919050565b82818337600083830152505050565b60006109b66109b184610963565b610948565b9050828152602081018484840111156109d2576109d16108d2565b5b6109dd848285610994565b509392505050565b600082601f8301126109fa576109f96108cd565b5b8135610a0a8482602086016109a3565b91505092915050565b600080600080600060a08688031215610a2f57610a2e61088d565b5b6000610a3d888289016108b8565b955050602086013567ffffffffffffffff811115610a5e57610a5d610892565b5b610a6a888289016109e5565b945050604086013567ffffffffffffffff811115610a8b57610a8a610892565b5b610a97888289016109e5565b935050606086013567ffffffffffffffff811115610ab857610ab7610892565b5b610ac4888289016109e5565b925050608086013567ffffffffffffffff811115610ae557610ae4610892565b5b610af1888289016109e5565b9150509295509295909350565b60008115159050919050565b610b1381610afe565b82525050565b6000602082019050610b2e6000830184610b0a565b92915050565b600060208284031215610b4a57610b4961088d565b5b6000610b58848285016108b8565b91505092915050565b600081519050919050565b600082825260208201905092915050565b60005b83811015610b9b578082015181840152602081019050610b80565b60008484015250505050565b6000610bb282610b61565b610bbc8185610b6c565b9350610bcc818560208601610b7d565b610bd5816108d7565b840191505092915050565b60006020820190508181036000830152610bfa8184610ba7565b905092915050565b600073ffffffffffffffffffffffffffffffffffffffff82169050919050565b6000610c2d82610c02565b9050919050565b610c3d81610c22565b8114610c4857600080fd5b50565b600081359050610c5a81610c34565b92915050565b60008060408385031215610c7757610c7661088d565b5b6000610c8585828601610c4b565b9250506020610c96858286016108b8565b9150509250929050565b6000819050919050565b610cb381610ca0565b82525050565b600060a0820190508181036000830152610cd38188610ba7565b90508181036020830152610ce78187610ba7565b90508181036040830152610cfb8186610ba7565b90508181036060830152610d0f8185610ba7565b9050610d1e6080830184610caa565b9695505050505050565b6000819050919050565b6000610d4d610d48610d4384610c02565b610d28565b610c02565b9050919050565b6000610d5f82610d32565b9050919050565b6000610d7182610d54565b9050919050565b610d8181610d66565b82525050565b6000602082019050610d9c6000830184610d78565b92915050565b610dab81610897565b82525050565b600060a082019050610dc66000830188610da2565b8181036020830152610dd88187610ba7565b90508181036040830152610dec8186610ba7565b90508181036060830152610e008185610ba7565b90508181036080830152610e148184610ba7565b90509695505050505050565b600080fd5b600080fd5b6000610e3d610e3884610963565b610948565b905082815260208101848484011115610e5957610e586108d2565b5b610e64848285610b7d565b509392505050565b600082601f830112610e8157610e806108cd565b5b8151610e91848260208601610e2a565b91505092915050565b610ea381610ca0565b8114610eae57600080fd5b50565b600081519050610ec081610e9a565b92915050565b600060a08284031215610edc57610edb610e20565b5b610ee660a0610948565b9050600082015167ffffffffffffffff811115610f0657610f05610e25565b5b610f1284828501610e6c565b600083015250602082015167ffffffffffffffff811115610f3657610f35610e25565b5b610f4284828501610e6c565b602083015250604082015167ffffffffffffffff811115610f6657610f65610e25565b5b610f7284828501610e6c565b604083015250606082015167ffffffffffffffff811115610f9657610f95610e25565b5b610fa284828501610e6c565b6060830152506080610fb684828501610eb1565b60808301525092915050565b600060208284031215610fd857610fd761088d565b5b600082015167ffffffffffffffff811115610ff657610ff5610892565b5b61100284828501610ec6565b91505092915050565b7f4e487b7100000000000000000000000000000000000000000000000000000000600052602260045260246000fd5b6000600282049050600182168061105257607f821691505b6020821081036110655761106461100b565b5b50919050565b60008190508160005260206000209050919050565b60006020601f8301049050919050565b600082821b905092915050565b6000600883026110cd7fffffffffffffffffffffffffffffffffffffffffffffffffffffffffffffffff82611090565b6110d78683611090565b95508019841693508086168417925050509392505050565b600061110a61110561110084610897565b610d28565b610897565b9050919050565b6000819050919050565b611124836110ef565b61113861113082611111565b84845461109d565b825550505050565b600090565b61114d611140565b61115881848461111b565b505050565b5b8181101561117c57611171600082611145565b60018101905061115e565b5050565b601f8211156111c1576111928161106b565b61119b84611080565b810160208510156111aa578190505b6111be6111b685611080565b83018261115d565b50505b505050565b600082821c905092915050565b60006111e4600019846008026111c6565b1980831691505092915050565b60006111fd83836111d3565b9150826002028217905092915050565b61121682610b61565b67ffffffffffffffff81111561122f5761122e6108e8565b5b611239825461103a565b611244828285611180565b600060209050601f8311600181146112775760008415611265578287015190505b61126f85826111f1565b8655506112d7565b601f1984166112858661106b565b60005b828110156112ad57848901518255600182019150602085019450602081019050611288565b868310156112ca57848901516112c6601f8916826111d3565b8355505b6001600288020188555050505b505050505050565b6112e881610c22565b82525050565b60006060820190506113036000830186610da2565b61131060208301856112df565b81810360408301526113228184610ba7565b9050949350505050565b7f4c2769642064656c20636572746966696361746f206e6f6e2065272076616c6960008201527f646f200000000000000000000000000000000000000000000000000000000000602082015250565b6000611388602383610b6c565b91506113938261132c565b604082019050919050565b600060208201905081810360008301526113b78161137b565b9050919050565b600081905092915050565b60006113d482610b61565b6113de81856113be565b93506113ee818560208601610b7d565b80840191505092915050565b7f2d00000000000000000000000000000000000000000000000000000000000000815250565b600061142c82876113c9565b9150611437826113fa565b60018201915061144782866113c9565b9150611452826113fa565b60018201915061146282856113c9565b915061146d826113fa565b60018201915061147d82846113c9565b91508190509594505050505056fea2646970667358221220a93491714ae76b03f280af26ea0610aaf9cb59c979895741e1503194ade105b564736f6c63430008130033",
  "immutableReferences": {},
  "source": "// SPDX-License-Identifier: MIT\r\npragma solidity >=0.4.22 <0.9.0;\r\n\r\nimport \"@openzeppelin/contracts/utils/Strings.sol\";\r\nimport \"./CertificatoCorso.sol\";\r\n\r\ncontract CertificatoCorsoViLear  {\r\n\r\n    // Construttore per l'indirizzo del Certificato \r\n    constructor(address certificatoAddress) {\r\n\r\n        certificato = CertificatoCorso(certificatoAddress);\r\n    }\r\n\r\n    CertificatoCorso public certificato;\r\n\r\n    // Questa struttura mi permette di associare ad ogni address un insieme di certificati\r\n    mapping(address => mapping(uint => CertificatoCorso.Certificato)) public _infoUtenteWithCertificati;\r\n\r\n    // Questo evento mi permette di poter mandare un messaggio\r\n    event CertificatoCreatoFatto(uint idCertificato,address wallet,string certificatoToString);\r\n\r\n    // Funzione Registra Certificato \r\n    function registraCertificato(uint idCertificato,\r\n        string memory _nomeCorso,\r\n        string memory _pubblicazioneData,\r\n        string memory _infoUtente,\r\n        string memory _infoTeacher\r\n        ) public returns(bool){\r\n\r\n        // Creo il Certificato tramite i dati che passo alla funzione dello smart contract \r\n        CertificatoCorso.Certificato memory newCertificate =  certificato.creaCertificato(\r\n            idCertificato,\r\n            _nomeCorso,\r\n            _pubblicazioneData,\r\n            _infoUtente,\r\n            _infoTeacher\r\n        );\r\n        // Inserisco il Certificato all'interno della mappa con quel determinato address\r\n        _infoUtenteWithCertificati[msg.sender][idCertificato] = newCertificate;\r\n        // Costruisco la stringa da costruire\r\n        string memory newCertificateToString = CertificatoToString(newCertificate);\r\n        // Invia l'informazione all'address in questione evidenziando i dati costruiti nel certificato\r\n        emit CertificatoCreatoFatto(idCertificato,msg.sender,newCertificateToString);\r\n        return true;\r\n    }\r\n\r\n    // Funzione che va dall'Oggetto Certificato a String \r\n    function CertificatoToString(CertificatoCorso.Certificato memory _certificato)private pure returns(string memory){\r\n       return string.concat(\r\n            _certificato.nomeCorso, '-',\r\n            _certificato.pubblicazioneData,'-',\r\n            _certificato.DateUtente,'-',\r\n            _certificato.DateTeacher);\r\n    }\r\n\r\n    // Questa funzione mi permette di poter recuperare un certificato in base \r\n    //a chi mi ha mandato la richiesta e all'id che mi sta passado \r\n    //se questo ovviamente ce l'ha nella sua struttura\r\n    function getCertificato(uint idCertificato)public view returns(string memory){\r\n        require(idCertificato >0,\"L'id del certificato non e' valido \");\r\n        return CertificatoToString(_infoUtenteWithCertificati[msg.sender][idCertificato]);\r\n    }\r\n}\r\n",
  "sourcePath": "C:\\Users\\umber\\Progetti\\ViLear-ERC1155\\ViLear-ERC1155\\vilear-course\\src\\main\\smart_contract\\contracts\\CertificatoCorsoViLear.sol",
  "compiler": {
    "name": "solc",
    "version": "0.8.19+commit.7dd6d404.Emscripten.clang"
  },
  "schemaVersion": "3.4.13",
  "updatedAt": "2023-03-21T19:57:45.152Z",
  "networkType": "ethereum",
  "devdoc": {
    "kind": "dev",
    "methods": {},
    "version": 1
  },
  "userdoc": {
    "kind": "user",
    "methods": {},
    "version": 1
  }
}