{
  "contractName": "CertificatoCorso",
  "abi": [
    {
      "inputs": [],
      "stateMutability": "nonpayable",
      "type": "constructor"
    },
    {
      "anonymous": false,
      "inputs": [
        {
          "indexed": true,
          "internalType": "address",
          "name": "account",
          "type": "address"
        },
        {
          "indexed": true,
          "internalType": "address",
          "name": "operator",
          "type": "address"
        },
        {
          "indexed": false,
          "internalType": "bool",
          "name": "approved",
          "type": "bool"
        }
      ],
      "name": "ApprovalForAll",
      "type": "event"
    },
    {
      "anonymous": false,
      "inputs": [
        {
          "indexed": true,
          "internalType": "address",
          "name": "operator",
          "type": "address"
        },
        {
          "indexed": true,
          "internalType": "address",
          "name": "from",
          "type": "address"
        },
        {
          "indexed": true,
          "internalType": "address",
          "name": "to",
          "type": "address"
        },
        {
          "indexed": false,
          "internalType": "uint256[]",
          "name": "ids",
          "type": "uint256[]"
        },
        {
          "indexed": false,
          "internalType": "uint256[]",
          "name": "values",
          "type": "uint256[]"
        }
      ],
      "name": "TransferBatch",
      "type": "event"
    },
    {
      "anonymous": false,
      "inputs": [
        {
          "indexed": true,
          "internalType": "address",
          "name": "operator",
          "type": "address"
        },
        {
          "indexed": true,
          "internalType": "address",
          "name": "from",
          "type": "address"
        },
        {
          "indexed": true,
          "internalType": "address",
          "name": "to",
          "type": "address"
        },
        {
          "indexed": false,
          "internalType": "uint256",
          "name": "id",
          "type": "uint256"
        },
        {
          "indexed": false,
          "internalType": "uint256",
          "name": "value",
          "type": "uint256"
        }
      ],
      "name": "TransferSingle",
      "type": "event"
    },
    {
      "anonymous": false,
      "inputs": [
        {
          "indexed": false,
          "internalType": "string",
          "name": "value",
          "type": "string"
        },
        {
          "indexed": true,
          "internalType": "uint256",
          "name": "id",
          "type": "uint256"
        }
      ],
      "name": "URI",
      "type": "event"
    },
    {
      "inputs": [
        {
          "internalType": "address",
          "name": "account",
          "type": "address"
        },
        {
          "internalType": "uint256",
          "name": "id",
          "type": "uint256"
        }
      ],
      "name": "balanceOf",
      "outputs": [
        {
          "internalType": "uint256",
          "name": "",
          "type": "uint256"
        }
      ],
      "stateMutability": "view",
      "type": "function"
    },
    {
      "inputs": [
        {
          "internalType": "address[]",
          "name": "accounts",
          "type": "address[]"
        },
        {
          "internalType": "uint256[]",
          "name": "ids",
          "type": "uint256[]"
        }
      ],
      "name": "balanceOfBatch",
      "outputs": [
        {
          "internalType": "uint256[]",
          "name": "",
          "type": "uint256[]"
        }
      ],
      "stateMutability": "view",
      "type": "function"
    },
    {
      "inputs": [
        {
          "internalType": "address",
          "name": "account",
          "type": "address"
        },
        {
          "internalType": "address",
          "name": "operator",
          "type": "address"
        }
      ],
      "name": "isApprovedForAll",
      "outputs": [
        {
          "internalType": "bool",
          "name": "",
          "type": "bool"
        }
      ],
      "stateMutability": "view",
      "type": "function"
    },
    {
      "inputs": [
        {
          "internalType": "address",
          "name": "from",
          "type": "address"
        },
        {
          "internalType": "address",
          "name": "to",
          "type": "address"
        },
        {
          "internalType": "uint256[]",
          "name": "ids",
          "type": "uint256[]"
        },
        {
          "internalType": "uint256[]",
          "name": "amounts",
          "type": "uint256[]"
        },
        {
          "internalType": "bytes",
          "name": "data",
          "type": "bytes"
        }
      ],
      "name": "safeBatchTransferFrom",
      "outputs": [],
      "stateMutability": "nonpayable",
      "type": "function"
    },
    {
      "inputs": [
        {
          "internalType": "address",
          "name": "from",
          "type": "address"
        },
        {
          "internalType": "address",
          "name": "to",
          "type": "address"
        },
        {
          "internalType": "uint256",
          "name": "id",
          "type": "uint256"
        },
        {
          "internalType": "uint256",
          "name": "amount",
          "type": "uint256"
        },
        {
          "internalType": "bytes",
          "name": "data",
          "type": "bytes"
        }
      ],
      "name": "safeTransferFrom",
      "outputs": [],
      "stateMutability": "nonpayable",
      "type": "function"
    },
    {
      "inputs": [
        {
          "internalType": "address",
          "name": "operator",
          "type": "address"
        },
        {
          "internalType": "bool",
          "name": "approved",
          "type": "bool"
        }
      ],
      "name": "setApprovalForAll",
      "outputs": [],
      "stateMutability": "nonpayable",
      "type": "function"
    },
    {
      "inputs": [
        {
          "internalType": "bytes4",
          "name": "interfaceId",
          "type": "bytes4"
        }
      ],
      "name": "supportsInterface",
      "outputs": [
        {
          "internalType": "bool",
          "name": "",
          "type": "bool"
        }
      ],
      "stateMutability": "view",
      "type": "function"
    },
    {
      "inputs": [
        {
          "internalType": "uint256",
          "name": "",
          "type": "uint256"
        }
      ],
      "name": "uri",
      "outputs": [
        {
          "internalType": "string",
          "name": "",
          "type": "string"
        }
      ],
      "stateMutability": "view",
      "type": "function"
    },
    {
      "inputs": [
        {
          "internalType": "uint256",
          "name": "idCertificato",
          "type": "uint256"
        },
        {
          "internalType": "string",
          "name": "_nomeCorso",
          "type": "string"
        },
        {
          "internalType": "string",
          "name": "_pubblicazioneData",
          "type": "string"
        },
        {
          "internalType": "string",
          "name": "_infoUtente",
          "type": "string"
        },
        {
          "internalType": "string",
          "name": "_infoTeacher",
          "type": "string"
        }
      ],
      "name": "creaCertificato",
      "outputs": [
        {
          "components": [
            {
              "internalType": "string",
              "name": "nomeCorso",
              "type": "string"
            },
            {
              "internalType": "string",
              "name": "pubblicazioneData",
              "type": "string"
            },
            {
              "internalType": "string",
              "name": "DateUtente",
              "type": "string"
            },
            {
              "internalType": "string",
              "name": "DateTeacher",
              "type": "string"
            },
            {
              "internalType": "bytes32",
              "name": "firma",
              "type": "bytes32"
            }
          ],
          "internalType": "struct CertificatoCorso.Certificato",
          "name": "",
          "type": "tuple"
        }
      ],
      "stateMutability": "view",
      "type": "function"
    }
  ],
  "bytecode": "0x60806040523480156200001157600080fd5b506040518060200160405280600081525062000033816200003a60201b60201c565b50620003b0565b80600290816200004b9190620002c9565b5050565b600081519050919050565b7f4e487b7100000000000000000000000000000000000000000000000000000000600052604160045260246000fd5b7f4e487b7100000000000000000000000000000000000000000000000000000000600052602260045260246000fd5b60006002820490506001821680620000d157607f821691505b602082108103620000e757620000e662000089565b5b50919050565b60008190508160005260206000209050919050565b60006020601f8301049050919050565b600082821b905092915050565b600060088302620001517fffffffffffffffffffffffffffffffffffffffffffffffffffffffffffffffff8262000112565b6200015d868362000112565b95508019841693508086168417925050509392505050565b6000819050919050565b6000819050919050565b6000620001aa620001a46200019e8462000175565b6200017f565b62000175565b9050919050565b6000819050919050565b620001c68362000189565b620001de620001d582620001b1565b8484546200011f565b825550505050565b600090565b620001f5620001e6565b62000202818484620001bb565b505050565b5b818110156200022a576200021e600082620001eb565b60018101905062000208565b5050565b601f82111562000279576200024381620000ed565b6200024e8462000102565b810160208510156200025e578190505b620002766200026d8562000102565b83018262000207565b50505b505050565b600082821c905092915050565b60006200029e600019846008026200027e565b1980831691505092915050565b6000620002b983836200028b565b9150826002028217905092915050565b620002d4826200004f565b67ffffffffffffffff811115620002f057620002ef6200005a565b5b620002fc8254620000b8565b620003098282856200022e565b600060209050601f8311600181146200034157600084156200032c578287015190505b620003388582620002ab565b865550620003a8565b601f1984166200035186620000ed565b60005b828110156200037b5784890151825560018201915060208501945060208101905062000354565b868310156200039b578489015162000397601f8916826200028b565b8355505b6001600288020188555050505b505050505050565b6129af80620003c06000396000f3fe608060405234801561001057600080fd5b50600436106100925760003560e01c80634e1273f4116100665780634e1273f414610143578063607afca314610173578063a22cb465146101a3578063e985e9c5146101bf578063f242432a146101ef57610092565b8062fdd58e1461009757806301ffc9a7146100c75780630e89341c146100f75780632eb2c2d614610127575b600080fd5b6100b160048036038101906100ac91906114f9565b61020b565b6040516100be9190611548565b60405180910390f35b6100e160048036038101906100dc91906115bb565b6102d3565b6040516100ee9190611603565b60405180910390f35b610111600480360381019061010c919061161e565b6103b5565b60405161011e91906116db565b60405180910390f35b610141600480360381019061013c91906118fa565b610449565b005b61015d60048036038101906101589190611a8c565b6104ea565b60405161016a9190611bc2565b60405180910390f35b61018d60048036038101906101889190611c85565b610603565b60405161019a9190611e5e565b60405180910390f35b6101bd60048036038101906101b89190611eac565b6106df565b005b6101d960048036038101906101d49190611eec565b6106f5565b6040516101e69190611603565b60405180910390f35b61020960048036038101906102049190611f2c565b610789565b005b60008073ffffffffffffffffffffffffffffffffffffffff168373ffffffffffffffffffffffffffffffffffffffff160361027b576040517f08c379a000000000000000000000000000000000000000000000000000000000815260040161027290612035565b60405180910390fd5b60008083815260200190815260200160002060008473ffffffffffffffffffffffffffffffffffffffff1673ffffffffffffffffffffffffffffffffffffffff16815260200190815260200160002054905092915050565b60007fd9b67a26000000000000000000000000000000000000000000000000000000007bffffffffffffffffffffffffffffffffffffffffffffffffffffffff1916827bffffffffffffffffffffffffffffffffffffffffffffffffffffffff1916148061039e57507f0e89341c000000000000000000000000000000000000000000000000000000007bffffffffffffffffffffffffffffffffffffffffffffffffffffffff1916827bffffffffffffffffffffffffffffffffffffffffffffffffffffffff1916145b806103ae57506103ad8261082a565b5b9050919050565b6060600280546103c490612084565b80601f01602080910402602001604051908101604052809291908181526020018280546103f090612084565b801561043d5780601f106104125761010080835404028352916020019161043d565b820191906000526020600020905b81548152906001019060200180831161042057829003601f168201915b50505050509050919050565b610451610894565b73ffffffffffffffffffffffffffffffffffffffff168573ffffffffffffffffffffffffffffffffffffffff161480610497575061049685610491610894565b6106f5565b5b6104d6576040517f08c379a00000000000000000000000000000000000000000000000000000000081526004016104cd90612127565b60405180910390fd5b6104e3858585858561089c565b5050505050565b60608151835114610530576040517f08c379a0000000000000000000000000000000000000000000000000000000008152600401610527906121b9565b60405180910390fd5b6000835167ffffffffffffffff81111561054d5761054c611702565b5b60405190808252806020026020018201604052801561057b5781602001602082028036833780820191505090505b50905060005b84518110156105f8576105c88582815181106105a05761059f6121d9565b5b60200260200101518583815181106105bb576105ba6121d9565b5b602002602001015161020b565b8282815181106105db576105da6121d9565b5b602002602001018181525050806105f190612237565b9050610581565b508091505092915050565b61060b61141f565b60006040518060a001604052806040518060200160405280600081525081526020016040518060200160405280600081525081526020016040518060200160405280600081525081526020016040518060200160405280600081525081526020016000801b815250905060008686868633604051602001610690959493929190612303565b6040516020818303038152906040528051906020012090506040518060a00160405280888152602001878152602001868152602001858152602001828152509150819250505095945050505050565b6106f16106ea610894565b8383610bbd565b5050565b6000600160008473ffffffffffffffffffffffffffffffffffffffff1673ffffffffffffffffffffffffffffffffffffffff16815260200190815260200160002060008373ffffffffffffffffffffffffffffffffffffffff1673ffffffffffffffffffffffffffffffffffffffff16815260200190815260200160002060009054906101000a900460ff16905092915050565b610791610894565b73ffffffffffffffffffffffffffffffffffffffff168573ffffffffffffffffffffffffffffffffffffffff1614806107d757506107d6856107d1610894565b6106f5565b5b610816576040517f08c379a000000000000000000000000000000000000000000000000000000000815260040161080d90612127565b60405180910390fd5b6108238585858585610d29565b5050505050565b60007f01ffc9a7000000000000000000000000000000000000000000000000000000007bffffffffffffffffffffffffffffffffffffffffffffffffffffffff1916827bffffffffffffffffffffffffffffffffffffffffffffffffffffffff1916149050919050565b600033905090565b81518351146108e0576040517f08c379a00000000000000000000000000000000000000000000000000000000081526004016108d7906123c4565b60405180910390fd5b600073ffffffffffffffffffffffffffffffffffffffff168473ffffffffffffffffffffffffffffffffffffffff160361094f576040517f08c379a000000000000000000000000000000000000000000000000000000000815260040161094690612456565b60405180910390fd5b6000610959610894565b9050610969818787878787610fc4565b60005b8451811015610b1a57600085828151811061098a576109896121d9565b5b6020026020010151905060008583815181106109a9576109a86121d9565b5b60200260200101519050600080600084815260200190815260200160002060008b73ffffffffffffffffffffffffffffffffffffffff1673ffffffffffffffffffffffffffffffffffffffff16815260200190815260200160002054905081811015610a4a576040517f08c379a0000000000000000000000000000000000000000000000000000000008152600401610a41906124e8565b60405180910390fd5b81810360008085815260200190815260200160002060008c73ffffffffffffffffffffffffffffffffffffffff1673ffffffffffffffffffffffffffffffffffffffff168152602001908152602001600020819055508160008085815260200190815260200160002060008b73ffffffffffffffffffffffffffffffffffffffff1673ffffffffffffffffffffffffffffffffffffffff1681526020019081526020016000206000828254610aff9190612508565b9250508190555050505080610b1390612237565b905061096c565b508473ffffffffffffffffffffffffffffffffffffffff168673ffffffffffffffffffffffffffffffffffffffff168273ffffffffffffffffffffffffffffffffffffffff167f4a39dc06d4c0dbc64b70af90fd698a233a518aa5d07e595d983b8c0526c8f7fb8787604051610b9192919061253c565b60405180910390a4610ba7818787878787610fcc565b610bb5818787878787610fd4565b505050505050565b8173ffffffffffffffffffffffffffffffffffffffff168373ffffffffffffffffffffffffffffffffffffffff1603610c2b576040517f08c379a0000000000000000000000000000000000000000000000000000000008152600401610c22906125e5565b60405180910390fd5b80600160008573ffffffffffffffffffffffffffffffffffffffff1673ffffffffffffffffffffffffffffffffffffffff16815260200190815260200160002060008473ffffffffffffffffffffffffffffffffffffffff1673ffffffffffffffffffffffffffffffffffffffff16815260200190815260200160002060006101000a81548160ff0219169083151502179055508173ffffffffffffffffffffffffffffffffffffffff168373ffffffffffffffffffffffffffffffffffffffff167f17307eab39ab6107e8899845ad3d59bd9653f200f220920489ca2b5937696c3183604051610d1c9190611603565b60405180910390a3505050565b600073ffffffffffffffffffffffffffffffffffffffff168473ffffffffffffffffffffffffffffffffffffffff1603610d98576040517f08c379a0000000000000000000000000000000000000000000000000000000008152600401610d8f90612456565b60405180910390fd5b6000610da2610894565b90506000610daf856111ab565b90506000610dbc856111ab565b9050610dcc838989858589610fc4565b600080600088815260200190815260200160002060008a73ffffffffffffffffffffffffffffffffffffffff1673ffffffffffffffffffffffffffffffffffffffff16815260200190815260200160002054905085811015610e63576040517f08c379a0000000000000000000000000000000000000000000000000000000008152600401610e5a906124e8565b60405180910390fd5b85810360008089815260200190815260200160002060008b73ffffffffffffffffffffffffffffffffffffffff1673ffffffffffffffffffffffffffffffffffffffff168152602001908152602001600020819055508560008089815260200190815260200160002060008a73ffffffffffffffffffffffffffffffffffffffff1673ffffffffffffffffffffffffffffffffffffffff1681526020019081526020016000206000828254610f189190612508565b925050819055508773ffffffffffffffffffffffffffffffffffffffff168973ffffffffffffffffffffffffffffffffffffffff168573ffffffffffffffffffffffffffffffffffffffff167fc3d58168c5ae7397731d063d5bbf3d657854427343f4c083240f7aacaa2d0f628a8a604051610f95929190612605565b60405180910390a4610fab848a8a86868a610fcc565b610fb9848a8a8a8a8a611225565b505050505050505050565b505050505050565b505050505050565b610ff38473ffffffffffffffffffffffffffffffffffffffff166113fc565b156111a3578373ffffffffffffffffffffffffffffffffffffffff1663bc197c8187878686866040518663ffffffff1660e01b8152600401611039959493929190612692565b6020604051808303816000875af192505050801561107557506040513d601f19601f82011682018060405250810190611072919061270f565b60015b61111a57611081612749565b806308c379a0036110dd575061109561276b565b806110a057506110df565b806040517f08c379a00000000000000000000000000000000000000000000000000000000081526004016110d491906116db565b60405180910390fd5b505b6040517f08c379a00000000000000000000000000000000000000000000000000000000081526004016111119061286d565b60405180910390fd5b63bc197c8160e01b7bffffffffffffffffffffffffffffffffffffffffffffffffffffffff1916817bffffffffffffffffffffffffffffffffffffffffffffffffffffffff1916146111a1576040517f08c379a0000000000000000000000000000000000000000000000000000000008152600401611198906128ff565b60405180910390fd5b505b505050505050565b60606000600167ffffffffffffffff8111156111ca576111c9611702565b5b6040519080825280602002602001820160405280156111f85781602001602082028036833780820191505090505b50905082816000815181106112105761120f6121d9565b5b60200260200101818152505080915050919050565b6112448473ffffffffffffffffffffffffffffffffffffffff166113fc565b156113f4578373ffffffffffffffffffffffffffffffffffffffff1663f23a6e6187878686866040518663ffffffff1660e01b815260040161128a95949392919061291f565b6020604051808303816000875af19250505080156112c657506040513d601f19601f820116820180604052508101906112c3919061270f565b60015b61136b576112d2612749565b806308c379a00361132e57506112e661276b565b806112f15750611330565b806040517f08c379a000000000000000000000000000000000000000000000000000000000815260040161132591906116db565b60405180910390fd5b505b6040517f08c379a00000000000000000000000000000000000000000000000000000000081526004016113629061286d565b60405180910390fd5b63f23a6e6160e01b7bffffffffffffffffffffffffffffffffffffffffffffffffffffffff1916817bffffffffffffffffffffffffffffffffffffffffffffffffffffffff1916146113f2576040517f08c379a00000000000000000000000000000000000000000000000000000000081526004016113e9906128ff565b60405180910390fd5b505b505050505050565b6000808273ffffffffffffffffffffffffffffffffffffffff163b119050919050565b6040518060a0016040528060608152602001606081526020016060815260200160608152602001600080191681525090565b6000604051905090565b600080fd5b600080fd5b600073ffffffffffffffffffffffffffffffffffffffff82169050919050565b600061149082611465565b9050919050565b6114a081611485565b81146114ab57600080fd5b50565b6000813590506114bd81611497565b92915050565b6000819050919050565b6114d6816114c3565b81146114e157600080fd5b50565b6000813590506114f3816114cd565b92915050565b600080604083850312156115105761150f61145b565b5b600061151e858286016114ae565b925050602061152f858286016114e4565b9150509250929050565b611542816114c3565b82525050565b600060208201905061155d6000830184611539565b92915050565b60007fffffffff0000000000000000000000000000000000000000000000000000000082169050919050565b61159881611563565b81146115a357600080fd5b50565b6000813590506115b58161158f565b92915050565b6000602082840312156115d1576115d061145b565b5b60006115df848285016115a6565b91505092915050565b60008115159050919050565b6115fd816115e8565b82525050565b600060208201905061161860008301846115f4565b92915050565b6000602082840312156116345761163361145b565b5b6000611642848285016114e4565b91505092915050565b600081519050919050565b600082825260208201905092915050565b60005b8381101561168557808201518184015260208101905061166a565b60008484015250505050565b6000601f19601f8301169050919050565b60006116ad8261164b565b6116b78185611656565b93506116c7818560208601611667565b6116d081611691565b840191505092915050565b600060208201905081810360008301526116f581846116a2565b905092915050565b600080fd5b7f4e487b7100000000000000000000000000000000000000000000000000000000600052604160045260246000fd5b61173a82611691565b810181811067ffffffffffffffff8211171561175957611758611702565b5b80604052505050565b600061176c611451565b90506117788282611731565b919050565b600067ffffffffffffffff82111561179857611797611702565b5b602082029050602081019050919050565b600080fd5b60006117c16117bc8461177d565b611762565b905080838252602082019050602084028301858111156117e4576117e36117a9565b5b835b8181101561180d57806117f988826114e4565b8452602084019350506020810190506117e6565b5050509392505050565b600082601f83011261182c5761182b6116fd565b5b813561183c8482602086016117ae565b91505092915050565b600080fd5b600067ffffffffffffffff82111561186557611864611702565b5b61186e82611691565b9050602081019050919050565b82818337600083830152505050565b600061189d6118988461184a565b611762565b9050828152602081018484840111156118b9576118b8611845565b5b6118c484828561187b565b509392505050565b600082601f8301126118e1576118e06116fd565b5b81356118f184826020860161188a565b91505092915050565b600080600080600060a086880312156119165761191561145b565b5b6000611924888289016114ae565b9550506020611935888289016114ae565b945050604086013567ffffffffffffffff81111561195657611955611460565b5b61196288828901611817565b935050606086013567ffffffffffffffff81111561198357611982611460565b5b61198f88828901611817565b925050608086013567ffffffffffffffff8111156119b0576119af611460565b5b6119bc888289016118cc565b9150509295509295909350565b600067ffffffffffffffff8211156119e4576119e3611702565b5b602082029050602081019050919050565b6000611a08611a03846119c9565b611762565b90508083825260208201905060208402830185811115611a2b57611a2a6117a9565b5b835b81811015611a545780611a4088826114ae565b845260208401935050602081019050611a2d565b5050509392505050565b600082601f830112611a7357611a726116fd565b5b8135611a838482602086016119f5565b91505092915050565b60008060408385031215611aa357611aa261145b565b5b600083013567ffffffffffffffff811115611ac157611ac0611460565b5b611acd85828601611a5e565b925050602083013567ffffffffffffffff811115611aee57611aed611460565b5b611afa85828601611817565b9150509250929050565b600081519050919050565b600082825260208201905092915050565b6000819050602082019050919050565b611b39816114c3565b82525050565b6000611b4b8383611b30565b60208301905092915050565b6000602082019050919050565b6000611b6f82611b04565b611b798185611b0f565b9350611b8483611b20565b8060005b83811015611bb5578151611b9c8882611b3f565b9750611ba783611b57565b925050600181019050611b88565b5085935050505092915050565b60006020820190508181036000830152611bdc8184611b64565b905092915050565b600067ffffffffffffffff821115611bff57611bfe611702565b5b611c0882611691565b9050602081019050919050565b6000611c28611c2384611be4565b611762565b905082815260208101848484011115611c4457611c43611845565b5b611c4f84828561187b565b509392505050565b600082601f830112611c6c57611c6b6116fd565b5b8135611c7c848260208601611c15565b91505092915050565b600080600080600060a08688031215611ca157611ca061145b565b5b6000611caf888289016114e4565b955050602086013567ffffffffffffffff811115611cd057611ccf611460565b5b611cdc88828901611c57565b945050604086013567ffffffffffffffff811115611cfd57611cfc611460565b5b611d0988828901611c57565b935050606086013567ffffffffffffffff811115611d2a57611d29611460565b5b611d3688828901611c57565b925050608086013567ffffffffffffffff811115611d5757611d56611460565b5b611d6388828901611c57565b9150509295509295909350565b600082825260208201905092915050565b6000611d8c8261164b565b611d968185611d70565b9350611da6818560208601611667565b611daf81611691565b840191505092915050565b6000819050919050565b611dcd81611dba565b82525050565b600060a0830160008301518482036000860152611df08282611d81565b91505060208301518482036020860152611e0a8282611d81565b91505060408301518482036040860152611e248282611d81565b91505060608301518482036060860152611e3e8282611d81565b9150506080830151611e536080860182611dc4565b508091505092915050565b60006020820190508181036000830152611e788184611dd3565b905092915050565b611e89816115e8565b8114611e9457600080fd5b50565b600081359050611ea681611e80565b92915050565b60008060408385031215611ec357611ec261145b565b5b6000611ed1858286016114ae565b9250506020611ee285828601611e97565b9150509250929050565b60008060408385031215611f0357611f0261145b565b5b6000611f11858286016114ae565b9250506020611f22858286016114ae565b9150509250929050565b600080600080600060a08688031215611f4857611f4761145b565b5b6000611f56888289016114ae565b9550506020611f67888289016114ae565b9450506040611f78888289016114e4565b9350506060611f89888289016114e4565b925050608086013567ffffffffffffffff811115611faa57611fa9611460565b5b611fb6888289016118cc565b9150509295509295909350565b7f455243313135353a2061646472657373207a65726f206973206e6f742061207660008201527f616c6964206f776e657200000000000000000000000000000000000000000000602082015250565b600061201f602a83611656565b915061202a82611fc3565b604082019050919050565b6000602082019050818103600083015261204e81612012565b9050919050565b7f4e487b7100000000000000000000000000000000000000000000000000000000600052602260045260246000fd5b6000600282049050600182168061209c57607f821691505b6020821081036120af576120ae612055565b5b50919050565b7f455243313135353a2063616c6c6572206973206e6f7420746f6b656e206f776e60008201527f6572206f7220617070726f766564000000000000000000000000000000000000602082015250565b6000612111602e83611656565b915061211c826120b5565b604082019050919050565b6000602082019050818103600083015261214081612104565b9050919050565b7f455243313135353a206163636f756e747320616e6420696473206c656e67746860008201527f206d69736d617463680000000000000000000000000000000000000000000000602082015250565b60006121a3602983611656565b91506121ae82612147565b604082019050919050565b600060208201905081810360008301526121d281612196565b9050919050565b7f4e487b7100000000000000000000000000000000000000000000000000000000600052603260045260246000fd5b7f4e487b7100000000000000000000000000000000000000000000000000000000600052601160045260246000fd5b6000612242826114c3565b91507fffffffffffffffffffffffffffffffffffffffffffffffffffffffffffffffff820361227457612273612208565b5b600182019050919050565b600081905092915050565b60006122958261164b565b61229f818561227f565b93506122af818560208601611667565b80840191505092915050565b60008160601b9050919050565b60006122d3826122bb565b9050919050565b60006122e5826122c8565b9050919050565b6122fd6122f882611485565b6122da565b82525050565b600061230f828861228a565b915061231b828761228a565b9150612327828661228a565b9150612333828561228a565b915061233f82846122ec565b6014820191508190509695505050505050565b7f455243313135353a2069647320616e6420616d6f756e7473206c656e6774682060008201527f6d69736d61746368000000000000000000000000000000000000000000000000602082015250565b60006123ae602883611656565b91506123b982612352565b604082019050919050565b600060208201905081810360008301526123dd816123a1565b9050919050565b7f455243313135353a207472616e7366657220746f20746865207a65726f20616460008201527f6472657373000000000000000000000000000000000000000000000000000000602082015250565b6000612440602583611656565b915061244b826123e4565b604082019050919050565b6000602082019050818103600083015261246f81612433565b9050919050565b7f455243313135353a20696e73756666696369656e742062616c616e636520666f60008201527f72207472616e7366657200000000000000000000000000000000000000000000602082015250565b60006124d2602a83611656565b91506124dd82612476565b604082019050919050565b60006020820190508181036000830152612501816124c5565b9050919050565b6000612513826114c3565b915061251e836114c3565b925082820190508082111561253657612535612208565b5b92915050565b600060408201905081810360008301526125568185611b64565b9050818103602083015261256a8184611b64565b90509392505050565b7f455243313135353a2073657474696e6720617070726f76616c2073746174757360008201527f20666f722073656c660000000000000000000000000000000000000000000000602082015250565b60006125cf602983611656565b91506125da82612573565b604082019050919050565b600060208201905081810360008301526125fe816125c2565b9050919050565b600060408201905061261a6000830185611539565b6126276020830184611539565b9392505050565b61263781611485565b82525050565b600081519050919050565b600082825260208201905092915050565b60006126648261263d565b61266e8185612648565b935061267e818560208601611667565b61268781611691565b840191505092915050565b600060a0820190506126a7600083018861262e565b6126b4602083018761262e565b81810360408301526126c68186611b64565b905081810360608301526126da8185611b64565b905081810360808301526126ee8184612659565b90509695505050505050565b6000815190506127098161158f565b92915050565b6000602082840312156127255761272461145b565b5b6000612733848285016126fa565b91505092915050565b60008160e01c9050919050565b600060033d11156127685760046000803e61276560005161273c565b90505b90565b600060443d106127f85761277d611451565b60043d036004823e80513d602482011167ffffffffffffffff821117156127a55750506127f8565b808201805167ffffffffffffffff8111156127c357505050506127f8565b80602083010160043d0385018111156127e05750505050506127f8565b6127ef82602001850186611731565b82955050505050505b90565b7f455243313135353a207472616e7366657220746f206e6f6e2d4552433131353560008201527f526563656976657220696d706c656d656e746572000000000000000000000000602082015250565b6000612857603483611656565b9150612862826127fb565b604082019050919050565b600060208201905081810360008301526128868161284a565b9050919050565b7f455243313135353a204552433131353552656365697665722072656a6563746560008201527f6420746f6b656e73000000000000000000000000000000000000000000000000602082015250565b60006128e9602883611656565b91506128f48261288d565b604082019050919050565b60006020820190508181036000830152612918816128dc565b9050919050565b600060a082019050612934600083018861262e565b612941602083018761262e565b61294e6040830186611539565b61295b6060830185611539565b818103608083015261296d8184612659565b9050969550505050505056fea2646970667358221220c23ca2d3c261e20a58e6f0150345bf919e1f8a32ecdd20fe214a0a2b6b67406f64736f6c63430008130033",
  "immutableReferences": {},
  "source": "// SPDX-License-Identifier: MIT\r\npragma solidity >=0.4.22 <0.9.0;\r\n\r\nimport \"@openzeppelin/contracts/token/ERC1155/ERC1155.sol\";\r\nimport \"@openzeppelin/contracts/utils/Strings.sol\";\r\n\r\ncontract CertificatoCorso is ERC1155{\r\n    // Costruttore del Certificato \r\n    constructor()ERC1155(\"\"){}\r\n\r\n    // Struttura che contiene le informazioni del singolo Certificato \r\n    struct Certificato {\r\n        string nomeCorso; // Nome del Corso \r\n        string pubblicazioneData; // Data di Pubblicazione del Corso \r\n        string DateUtente;\r\n        string DateTeacher;\r\n        bytes32 firma; // Tale numero univoco viene prodotto dalla funzione di Hashing keccak256(abi.encodePackage(data));\r\n    }\r\n\r\n\r\n    function creaCertificato(\r\n        uint idCertificato,\r\n        string memory _nomeCorso,\r\n        string memory _pubblicazioneData,\r\n        string memory _infoUtente,\r\n        string memory _infoTeacher\r\n    ) public view returns(Certificato memory){\r\n        // Verifico che l'id del certificato sia sempre >0 altrimenti non posso inserirlo\r\n        // Registro il certificato come se fosse vuoto \r\n        Certificato memory newCertificate =  Certificato({\r\n            nomeCorso: \"\",\r\n            pubblicazioneData: \"\",\r\n            DateUtente: \"\",\r\n            DateTeacher: \"\",\r\n            firma: 0\r\n        });\r\n        if(idCertificato<0){\r\n        }\r\n        // Crittografo la firma in maniera da renderla univoca\r\n        bytes32 firmaCertificato = keccak256(\r\n            abi.encodePacked(\r\n            _nomeCorso,\r\n            _pubblicazioneData,\r\n            _infoUtente,\r\n            _infoTeacher,\r\n            msg.sender\r\n            )\r\n            );\r\n        // Creo il certificato con gli appositi campi  \r\n         newCertificate = Certificato({\r\n            nomeCorso: _nomeCorso,\r\n            pubblicazioneData: _pubblicazioneData,\r\n            DateUtente: _infoUtente,\r\n            DateTeacher: _infoTeacher,\r\n            firma: firmaCertificato\r\n        });\r\n        return newCertificate;\r\n    }\r\n}",
  "sourcePath": "C:\\Users\\umber\\Progetti\\ViLear-ERC1155\\ViLear-ERC1155\\vilear-course\\src\\main\\smart_contract\\contracts\\CertificatoCorso.sol",
  "compiler": {
    "name": "solc",
    "version": "0.8.19+commit.7dd6d404.Emscripten.clang"
  },
  "schemaVersion": "3.4.13",
  "updatedAt": "2023-03-21T19:57:42.337Z",
  "devdoc": {
    "events": {
      "ApprovalForAll(address,address,bool)": {
        "details": "Emitted when `account` grants or revokes permission to `operator` to transfer their tokens, according to `approved`."
      },
      "TransferBatch(address,address,address,uint256[],uint256[])": {
        "details": "Equivalent to multiple {TransferSingle} events, where `operator`, `from` and `to` are the same for all transfers."
      },
      "TransferSingle(address,address,address,uint256,uint256)": {
        "details": "Emitted when `value` tokens of token type `id` are transferred from `from` to `to` by `operator`."
      },
      "URI(string,uint256)": {
        "details": "Emitted when the URI for token type `id` changes to `value`, if it is a non-programmatic URI. If an {URI} event was emitted for `id`, the standard https://eips.ethereum.org/EIPS/eip-1155#metadata-extensions[guarantees] that `value` will equal the value returned by {IERC1155MetadataURI-uri}."
      }
    },
    "kind": "dev",
    "methods": {
      "balanceOf(address,uint256)": {
        "details": "See {IERC1155-balanceOf}. Requirements: - `account` cannot be the zero address."
      },
      "balanceOfBatch(address[],uint256[])": {
        "details": "See {IERC1155-balanceOfBatch}. Requirements: - `accounts` and `ids` must have the same length."
      },
      "isApprovedForAll(address,address)": {
        "details": "See {IERC1155-isApprovedForAll}."
      },
      "safeBatchTransferFrom(address,address,uint256[],uint256[],bytes)": {
        "details": "See {IERC1155-safeBatchTransferFrom}."
      },
      "safeTransferFrom(address,address,uint256,uint256,bytes)": {
        "details": "See {IERC1155-safeTransferFrom}."
      },
      "setApprovalForAll(address,bool)": {
        "details": "See {IERC1155-setApprovalForAll}."
      },
      "supportsInterface(bytes4)": {
        "details": "See {IERC165-supportsInterface}."
      },
      "uri(uint256)": {
        "details": "See {IERC1155MetadataURI-uri}. This implementation returns the same URI for *all* token types. It relies on the token type ID substitution mechanism https://eips.ethereum.org/EIPS/eip-1155#metadata[defined in the EIP]. Clients calling this function must replace the `\\{id\\}` substring with the actual token type ID."
      }
    },
    "version": 1
  },
  "userdoc": {
    "kind": "user",
    "methods": {},
    "version": 1
  }
}