{
  "contractName": "CertificatoCorso",
  "abi": [
    {
      "inputs": [],
      "stateMutability": "nonpayable",
      "type": "constructor"
    },
    {
      "anonymous": false,
      "inputs": [
        {
          "indexed": true,
          "internalType": "address",
          "name": "account",
          "type": "address"
        },
        {
          "indexed": true,
          "internalType": "address",
          "name": "operator",
          "type": "address"
        },
        {
          "indexed": false,
          "internalType": "bool",
          "name": "approved",
          "type": "bool"
        }
      ],
      "name": "ApprovalForAll",
      "type": "event"
    },
    {
      "anonymous": false,
      "inputs": [
        {
          "indexed": false,
          "internalType": "uint256",
          "name": "idCertificato",
          "type": "uint256"
        },
        {
          "indexed": false,
          "internalType": "address",
          "name": "wallet",
          "type": "address"
        },
        {
          "indexed": false,
          "internalType": "string",
          "name": "certificatoToString",
          "type": "string"
        }
      ],
      "name": "CertificatoCreatoFatto",
      "type": "event"
    },
    {
      "anonymous": false,
      "inputs": [
        {
          "indexed": true,
          "internalType": "address",
          "name": "operator",
          "type": "address"
        },
        {
          "indexed": true,
          "internalType": "address",
          "name": "from",
          "type": "address"
        },
        {
          "indexed": true,
          "internalType": "address",
          "name": "to",
          "type": "address"
        },
        {
          "indexed": false,
          "internalType": "uint256[]",
          "name": "ids",
          "type": "uint256[]"
        },
        {
          "indexed": false,
          "internalType": "uint256[]",
          "name": "values",
          "type": "uint256[]"
        }
      ],
      "name": "TransferBatch",
      "type": "event"
    },
    {
      "anonymous": false,
      "inputs": [
        {
          "indexed": true,
          "internalType": "address",
          "name": "operator",
          "type": "address"
        },
        {
          "indexed": true,
          "internalType": "address",
          "name": "from",
          "type": "address"
        },
        {
          "indexed": true,
          "internalType": "address",
          "name": "to",
          "type": "address"
        },
        {
          "indexed": false,
          "internalType": "uint256",
          "name": "id",
          "type": "uint256"
        },
        {
          "indexed": false,
          "internalType": "uint256",
          "name": "value",
          "type": "uint256"
        }
      ],
      "name": "TransferSingle",
      "type": "event"
    },
    {
      "anonymous": false,
      "inputs": [
        {
          "indexed": false,
          "internalType": "string",
          "name": "value",
          "type": "string"
        },
        {
          "indexed": true,
          "internalType": "uint256",
          "name": "id",
          "type": "uint256"
        }
      ],
      "name": "URI",
      "type": "event"
    },
    {
      "inputs": [
        {
          "internalType": "address",
          "name": "",
          "type": "address"
        },
        {
          "internalType": "uint256",
          "name": "",
          "type": "uint256"
        }
      ],
      "name": "_infoUtenteWithCertificati",
      "outputs": [
        {
          "internalType": "string",
          "name": "nomeCorso",
          "type": "string"
        },
        {
          "internalType": "string",
          "name": "pubblicazioneData",
          "type": "string"
        },
        {
          "internalType": "string",
          "name": "DateUtente",
          "type": "string"
        },
        {
          "internalType": "string",
          "name": "DateTeacher",
          "type": "string"
        },
        {
          "internalType": "bytes32",
          "name": "firma",
          "type": "bytes32"
        }
      ],
      "stateMutability": "view",
      "type": "function",
      "constant": true
    },
    {
      "inputs": [
        {
          "internalType": "address",
          "name": "account",
          "type": "address"
        },
        {
          "internalType": "uint256",
          "name": "id",
          "type": "uint256"
        }
      ],
      "name": "balanceOf",
      "outputs": [
        {
          "internalType": "uint256",
          "name": "",
          "type": "uint256"
        }
      ],
      "stateMutability": "view",
      "type": "function",
      "constant": true
    },
    {
      "inputs": [
        {
          "internalType": "address[]",
          "name": "accounts",
          "type": "address[]"
        },
        {
          "internalType": "uint256[]",
          "name": "ids",
          "type": "uint256[]"
        }
      ],
      "name": "balanceOfBatch",
      "outputs": [
        {
          "internalType": "uint256[]",
          "name": "",
          "type": "uint256[]"
        }
      ],
      "stateMutability": "view",
      "type": "function",
      "constant": true
    },
    {
      "inputs": [
        {
          "internalType": "address",
          "name": "account",
          "type": "address"
        },
        {
          "internalType": "address",
          "name": "operator",
          "type": "address"
        }
      ],
      "name": "isApprovedForAll",
      "outputs": [
        {
          "internalType": "bool",
          "name": "",
          "type": "bool"
        }
      ],
      "stateMutability": "view",
      "type": "function",
      "constant": true
    },
    {
      "inputs": [
        {
          "internalType": "address",
          "name": "from",
          "type": "address"
        },
        {
          "internalType": "address",
          "name": "to",
          "type": "address"
        },
        {
          "internalType": "uint256[]",
          "name": "ids",
          "type": "uint256[]"
        },
        {
          "internalType": "uint256[]",
          "name": "amounts",
          "type": "uint256[]"
        },
        {
          "internalType": "bytes",
          "name": "data",
          "type": "bytes"
        }
      ],
      "name": "safeBatchTransferFrom",
      "outputs": [],
      "stateMutability": "nonpayable",
      "type": "function"
    },
    {
      "inputs": [
        {
          "internalType": "address",
          "name": "from",
          "type": "address"
        },
        {
          "internalType": "address",
          "name": "to",
          "type": "address"
        },
        {
          "internalType": "uint256",
          "name": "id",
          "type": "uint256"
        },
        {
          "internalType": "uint256",
          "name": "amount",
          "type": "uint256"
        },
        {
          "internalType": "bytes",
          "name": "data",
          "type": "bytes"
        }
      ],
      "name": "safeTransferFrom",
      "outputs": [],
      "stateMutability": "nonpayable",
      "type": "function"
    },
    {
      "inputs": [
        {
          "internalType": "address",
          "name": "operator",
          "type": "address"
        },
        {
          "internalType": "bool",
          "name": "approved",
          "type": "bool"
        }
      ],
      "name": "setApprovalForAll",
      "outputs": [],
      "stateMutability": "nonpayable",
      "type": "function"
    },
    {
      "inputs": [
        {
          "internalType": "bytes4",
          "name": "interfaceId",
          "type": "bytes4"
        }
      ],
      "name": "supportsInterface",
      "outputs": [
        {
          "internalType": "bool",
          "name": "",
          "type": "bool"
        }
      ],
      "stateMutability": "view",
      "type": "function",
      "constant": true
    },
    {
      "inputs": [
        {
          "internalType": "uint256",
          "name": "",
          "type": "uint256"
        }
      ],
      "name": "uri",
      "outputs": [
        {
          "internalType": "string",
          "name": "",
          "type": "string"
        }
      ],
      "stateMutability": "view",
      "type": "function",
      "constant": true
    },
    {
      "inputs": [
        {
          "internalType": "uint256",
          "name": "idCertificato",
          "type": "uint256"
        },
        {
          "internalType": "string",
          "name": "_nomeCorso",
          "type": "string"
        },
        {
          "internalType": "string",
          "name": "_pubblicazioneData",
          "type": "string"
        },
        {
          "internalType": "string",
          "name": "_infoUtente",
          "type": "string"
        },
        {
          "internalType": "string",
          "name": "_infoTeacher",
          "type": "string"
        }
      ],
      "name": "creaCertificato",
      "outputs": [
        {
          "internalType": "bool",
          "name": "",
          "type": "bool"
        }
      ],
      "stateMutability": "nonpayable",
      "type": "function"
    },
    {
      "inputs": [
        {
          "internalType": "uint256",
          "name": "idCertificato",
          "type": "uint256"
        }
      ],
      "name": "getCertificato",
      "outputs": [
        {
          "internalType": "string",
          "name": "",
          "type": "string"
        }
      ],
      "stateMutability": "view",
      "type": "function",
      "constant": true
    }
  ],
  "bytecode": "0x60806040523480156200001157600080fd5b506040805160208101909152600081526200002c8162000033565b50620001b6565b6002620000418282620000ea565b5050565b634e487b7160e01b600052604160045260246000fd5b600181811c908216806200007057607f821691505b6020821081036200009157634e487b7160e01b600052602260045260246000fd5b50919050565b601f821115620000e557600081815260208120601f850160051c81016020861015620000c05750805b601f850160051c820191505b81811015620000e157828155600101620000cc565b5050505b505050565b81516001600160401b0381111562000106576200010662000045565b6200011e816200011784546200005b565b8462000097565b602080601f8311600181146200015657600084156200013d5750858301515b600019600386901b1c1916600185901b178555620000e1565b600085815260208120601f198616915b82811015620001875788860151825594840194600190910190840162000166565b5085821015620001a65787850151600019600388901b60f8161c191681555b5050505050600190811b01905550565b611ffa80620001c66000396000f3fe608060405234801561001057600080fd5b50600436106100c85760003560e01c8063607afca311610081578063e985e9c51161005b578063e985e9c5146101a4578063ea6ee0e9146101e0578063f242432a1461020457600080fd5b8063607afca31461016b578063a22cb4651461017e578063da8548c71461019157600080fd5b80630e89341c116100b25780630e89341c146101165780632eb2c2d6146101365780634e1273f41461014b57600080fd5b8062fdd58e146100cd57806301ffc9a7146100f3575b600080fd5b6100e06100db3660046115a6565b610217565b6040519081526020015b60405180910390f35b6101066101013660046115e9565b6102c3565b60405190151581526020016100ea565b61012961012436600461160d565b61035e565b6040516100ea9190611676565b6101496101443660046117d5565b6103f2565b005b61015e61015936600461187f565b610494565b6040516100ea9190611985565b610106610179366004611998565b6105d2565b61014961018c366004611a1f565b6106f8565b61012961019f36600461160d565b610707565b6101066101b2366004611a5b565b6001600160a01b03918216600090815260016020908152604080832093909416825291909152205460ff1690565b6101f36101ee3660046115a6565b610a00565b6040516100ea959493929190611a8e565b610149610212366004611aee565b610c59565b60006001600160a01b03831661029a5760405162461bcd60e51b815260206004820152602a60248201527f455243313135353a2061646472657373207a65726f206973206e6f742061207660448201527f616c6964206f776e65720000000000000000000000000000000000000000000060648201526084015b60405180910390fd5b506000818152602081815260408083206001600160a01b03861684529091529020545b92915050565b60006001600160e01b031982167fd9b67a2600000000000000000000000000000000000000000000000000000000148061032657506001600160e01b031982167f0e89341c00000000000000000000000000000000000000000000000000000000145b806102bd57507f01ffc9a7000000000000000000000000000000000000000000000000000000006001600160e01b03198316146102bd565b60606002805461036d90611b53565b80601f016020809104026020016040519081016040528092919081815260200182805461039990611b53565b80156103e65780601f106103bb576101008083540402835291602001916103e6565b820191906000526020600020905b8154815290600101906020018083116103c957829003601f168201915b50505050509050919050565b6001600160a01b03851633148061040e575061040e85336101b2565b6104805760405162461bcd60e51b815260206004820152602e60248201527f455243313135353a2063616c6c6572206973206e6f7420746f6b656e206f776e60448201527f6572206f7220617070726f7665640000000000000000000000000000000000006064820152608401610291565b61048d8585858585610cf4565b5050505050565b6060815183511461050d5760405162461bcd60e51b815260206004820152602960248201527f455243313135353a206163636f756e747320616e6420696473206c656e67746860448201527f206d69736d6174636800000000000000000000000000000000000000000000006064820152608401610291565b6000835167ffffffffffffffff81111561052957610529611689565b604051908082528060200260200182016040528015610552578160200160208202803683370190505b50905060005b84518110156105ca5761059d85828151811061057657610576611b8d565b602002602001015185838151811061059057610590611b8d565b6020026020010151610217565b8282815181106105af576105af611b8d565b60209081029190910101526105c381611bb9565b9050610558565b509392505050565b60008085858585336040516020016105ee959493929190611bd2565b60408051601f19818403018152828252805160209182012060a0840183528984528184018990528383018890526060840187905260808401819052336000908152600383528381208c82529092529190208251919350829181906106529082611ca3565b50602082015160018201906106679082611ca3565b506040820151600282019061067c9082611ca3565b50606082015160038201906106919082611ca3565b506080820151816004015590505060006106aa82610f7a565b90507f86b8c9a0013d2456591ae51347476d48de75f275fca6e4d2b74b4c956f18239d8933836040516106df93929190611d63565b60405180910390a1600193505050505b95945050505050565b610703338383610fb9565b5050565b60606000821161077f5760405162461bcd60e51b815260206004820152602360248201527f4c2769642064656c20636572746966696361746f206e6f6e2065272076616c6960448201527f646f2000000000000000000000000000000000000000000000000000000000006064820152608401610291565b33600090815260036020908152604080832085845290915290819020815160a0810190925280546102bd929190829082906107b990611b53565b80601f01602080910402602001604051908101604052809291908181526020018280546107e590611b53565b80156108325780601f1061080757610100808354040283529160200191610832565b820191906000526020600020905b81548152906001019060200180831161081557829003601f168201915b5050505050815260200160018201805461084b90611b53565b80601f016020809104026020016040519081016040528092919081815260200182805461087790611b53565b80156108c45780601f10610899576101008083540402835291602001916108c4565b820191906000526020600020905b8154815290600101906020018083116108a757829003601f168201915b505050505081526020016002820180546108dd90611b53565b80601f016020809104026020016040519081016040528092919081815260200182805461090990611b53565b80156109565780601f1061092b57610100808354040283529160200191610956565b820191906000526020600020905b81548152906001019060200180831161093957829003601f168201915b5050505050815260200160038201805461096f90611b53565b80601f016020809104026020016040519081016040528092919081815260200182805461099b90611b53565b80156109e85780601f106109bd576101008083540402835291602001916109e8565b820191906000526020600020905b8154815290600101906020018083116109cb57829003601f168201915b50505050508152602001600482015481525050610f7a565b6003602090815260009283526040808420909152908252902080548190610a2690611b53565b80601f0160208091040260200160405190810160405280929190818152602001828054610a5290611b53565b8015610a9f5780601f10610a7457610100808354040283529160200191610a9f565b820191906000526020600020905b815481529060010190602001808311610a8257829003601f168201915b505050505090806001018054610ab490611b53565b80601f0160208091040260200160405190810160405280929190818152602001828054610ae090611b53565b8015610b2d5780601f10610b0257610100808354040283529160200191610b2d565b820191906000526020600020905b815481529060010190602001808311610b1057829003601f168201915b505050505090806002018054610b4290611b53565b80601f0160208091040260200160405190810160405280929190818152602001828054610b6e90611b53565b8015610bbb5780601f10610b9057610100808354040283529160200191610bbb565b820191906000526020600020905b815481529060010190602001808311610b9e57829003601f168201915b505050505090806003018054610bd090611b53565b80601f0160208091040260200160405190810160405280929190818152602001828054610bfc90611b53565b8015610c495780601f10610c1e57610100808354040283529160200191610c49565b820191906000526020600020905b815481529060010190602001808311610c2c57829003601f168201915b5050505050908060040154905085565b6001600160a01b038516331480610c755750610c7585336101b2565b610ce75760405162461bcd60e51b815260206004820152602e60248201527f455243313135353a2063616c6c6572206973206e6f7420746f6b656e206f776e60448201527f6572206f7220617070726f7665640000000000000000000000000000000000006064820152608401610291565b61048d85858585856110ad565b8151835114610d6b5760405162461bcd60e51b815260206004820152602860248201527f455243313135353a2069647320616e6420616d6f756e7473206c656e6774682060448201527f6d69736d617463680000000000000000000000000000000000000000000000006064820152608401610291565b6001600160a01b038416610dcf5760405162461bcd60e51b815260206004820152602560248201527f455243313135353a207472616e7366657220746f20746865207a65726f206164604482015264647265737360d81b6064820152608401610291565b3360005b8451811015610f0c576000858281518110610df057610df0611b8d565b602002602001015190506000858381518110610e0e57610e0e611b8d565b602090810291909101810151600084815280835260408082206001600160a01b038e168352909352919091205490915081811015610eb45760405162461bcd60e51b815260206004820152602a60248201527f455243313135353a20696e73756666696369656e742062616c616e636520666f60448201527f72207472616e73666572000000000000000000000000000000000000000000006064820152608401610291565b6000838152602081815260408083206001600160a01b038e8116855292528083208585039055908b16825281208054849290610ef1908490611d8b565b9250508190555050505080610f0590611bb9565b9050610dd3565b50846001600160a01b0316866001600160a01b0316826001600160a01b03167f4a39dc06d4c0dbc64b70af90fd698a233a518aa5d07e595d983b8c0526c8f7fb8787604051610f5c929190611d9e565b60405180910390a4610f7281878787878761126b565b505050505050565b60608160000151826020015183604001518460600151604051602001610fa39493929190611dc3565b6040516020818303038152906040529050919050565b816001600160a01b0316836001600160a01b0316036110405760405162461bcd60e51b815260206004820152602960248201527f455243313135353a2073657474696e6720617070726f76616c2073746174757360448201527f20666f722073656c6600000000000000000000000000000000000000000000006064820152608401610291565b6001600160a01b03838116600081815260016020908152604080832094871680845294825291829020805460ff191686151590811790915591519182527f17307eab39ab6107e8899845ad3d59bd9653f200f220920489ca2b5937696c31910160405180910390a3505050565b6001600160a01b0384166111115760405162461bcd60e51b815260206004820152602560248201527f455243313135353a207472616e7366657220746f20746865207a65726f206164604482015264647265737360d81b6064820152608401610291565b33600061111d8561142e565b9050600061112a8561142e565b90506000868152602081815260408083206001600160a01b038c168452909152902054858110156111c35760405162461bcd60e51b815260206004820152602a60248201527f455243313135353a20696e73756666696369656e742062616c616e636520666f60448201527f72207472616e73666572000000000000000000000000000000000000000000006064820152608401610291565b6000878152602081815260408083206001600160a01b038d8116855292528083208985039055908a16825281208054889290611200908490611d8b565b909155505060408051888152602081018890526001600160a01b03808b16928c821692918816917fc3d58168c5ae7397731d063d5bbf3d657854427343f4c083240f7aacaa2d0f62910160405180910390a4611260848a8a8a8a8a611479565b505050505050505050565b6001600160a01b0384163b15610f725760405163bc197c8160e01b81526001600160a01b0385169063bc197c81906112af9089908990889088908890600401611e60565b6020604051808303816000875af19250505080156112ea575060408051601f3d908101601f191682019092526112e791810190611ebe565b60015b61139f576112f6611edb565b806308c379a00361132f575061130a611ef7565b806113155750611331565b8060405162461bcd60e51b81526004016102919190611676565b505b60405162461bcd60e51b815260206004820152603460248201527f455243313135353a207472616e7366657220746f206e6f6e2d4552433131353560448201527f526563656976657220696d706c656d656e7465720000000000000000000000006064820152608401610291565b6001600160e01b0319811663bc197c8160e01b146114255760405162461bcd60e51b815260206004820152602860248201527f455243313135353a204552433131353552656365697665722072656a6563746560448201527f6420746f6b656e730000000000000000000000000000000000000000000000006064820152608401610291565b50505050505050565b6040805160018082528183019092526060916000919060208083019080368337019050509050828160008151811061146857611468611b8d565b602090810291909101015292915050565b6001600160a01b0384163b15610f725760405163f23a6e6160e01b81526001600160a01b0385169063f23a6e61906114bd9089908990889088908890600401611f81565b6020604051808303816000875af19250505080156114f8575060408051601f3d908101601f191682019092526114f591810190611ebe565b60015b611504576112f6611edb565b6001600160e01b0319811663f23a6e6160e01b146114255760405162461bcd60e51b815260206004820152602860248201527f455243313135353a204552433131353552656365697665722072656a6563746560448201527f6420746f6b656e730000000000000000000000000000000000000000000000006064820152608401610291565b80356001600160a01b03811681146115a157600080fd5b919050565b600080604083850312156115b957600080fd5b6115c28361158a565b946020939093013593505050565b6001600160e01b0319811681146115e657600080fd5b50565b6000602082840312156115fb57600080fd5b8135611606816115d0565b9392505050565b60006020828403121561161f57600080fd5b5035919050565b60005b83811015611641578181015183820152602001611629565b50506000910152565b60008151808452611662816020860160208601611626565b601f01601f19169290920160200192915050565b602081526000611606602083018461164a565b634e487b7160e01b600052604160045260246000fd5b601f8201601f1916810167ffffffffffffffff811182821017156116c5576116c5611689565b6040525050565b600067ffffffffffffffff8211156116e6576116e6611689565b5060051b60200190565b600082601f83011261170157600080fd5b8135602061170e826116cc565b60405161171b828261169f565b83815260059390931b850182019282810191508684111561173b57600080fd5b8286015b84811015611756578035835291830191830161173f565b509695505050505050565b600082601f83011261177257600080fd5b813567ffffffffffffffff81111561178c5761178c611689565b6040516117a3601f8301601f19166020018261169f565b8181528460208386010111156117b857600080fd5b816020850160208301376000918101602001919091529392505050565b600080600080600060a086880312156117ed57600080fd5b6117f68661158a565b94506118046020870161158a565b9350604086013567ffffffffffffffff8082111561182157600080fd5b61182d89838a016116f0565b9450606088013591508082111561184357600080fd5b61184f89838a016116f0565b9350608088013591508082111561186557600080fd5b5061187288828901611761565b9150509295509295909350565b6000806040838503121561189257600080fd5b823567ffffffffffffffff808211156118aa57600080fd5b818501915085601f8301126118be57600080fd5b813560206118cb826116cc565b6040516118d8828261169f565b83815260059390931b85018201928281019150898411156118f857600080fd5b948201945b8386101561191d5761190e8661158a565b825294820194908201906118fd565b9650508601359250508082111561193357600080fd5b50611940858286016116f0565b9150509250929050565b600081518084526020808501945080840160005b8381101561197a5781518752958201959082019060010161195e565b509495945050505050565b602081526000611606602083018461194a565b600080600080600060a086880312156119b057600080fd5b85359450602086013567ffffffffffffffff808211156119cf57600080fd5b6119db89838a01611761565b955060408801359150808211156119f157600080fd5b6119fd89838a01611761565b94506060880135915080821115611a1357600080fd5b61184f89838a01611761565b60008060408385031215611a3257600080fd5b611a3b8361158a565b915060208301358015158114611a5057600080fd5b809150509250929050565b60008060408385031215611a6e57600080fd5b611a778361158a565b9150611a856020840161158a565b90509250929050565b60a081526000611aa160a083018861164a565b8281036020840152611ab3818861164a565b90508281036040840152611ac7818761164a565b90508281036060840152611adb818661164a565b9150508260808301529695505050505050565b600080600080600060a08688031215611b0657600080fd5b611b0f8661158a565b9450611b1d6020870161158a565b93506040860135925060608601359150608086013567ffffffffffffffff811115611b4757600080fd5b61187288828901611761565b600181811c90821680611b6757607f821691505b602082108103611b8757634e487b7160e01b600052602260045260246000fd5b50919050565b634e487b7160e01b600052603260045260246000fd5b634e487b7160e01b600052601160045260246000fd5b600060018201611bcb57611bcb611ba3565b5060010190565b60008651611be4818460208b01611626565b865190830190611bf8818360208b01611626565b8651910190611c0b818360208a01611626565b8551910190611c1e818360208901611626565b60609490941b7fffffffffffffffffffffffffffffffffffffffff0000000000000000000000001693019283525050601401949350505050565b601f821115611c9e57600081815260208120601f850160051c81016020861015611c7f5750805b601f850160051c820191505b81811015610f7257828155600101611c8b565b505050565b815167ffffffffffffffff811115611cbd57611cbd611689565b611cd181611ccb8454611b53565b84611c58565b602080601f831160018114611d065760008415611cee5750858301515b600019600386901b1c1916600185901b178555610f72565b600085815260208120601f198616915b82811015611d3557888601518255948401946001909101908401611d16565b5085821015611d535787850151600019600388901b60f8161c191681555b5050505050600190811b01905550565b8381526001600160a01b03831660208201526060604082015260006106ef606083018461164a565b808201808211156102bd576102bd611ba3565b604081526000611db1604083018561194a565b82810360208401526106ef818561194a565b60008551611dd5818460208a01611626565b80830190507f2d000000000000000000000000000000000000000000000000000000000000008082528651611e11816001850160208b01611626565b600192019182018190528551611e2e816002850160208a01611626565b600292019182018190528451611e4b816003850160208901611626565b60039201918201526004019695505050505050565b60006001600160a01b03808816835280871660208401525060a06040830152611e8c60a083018661194a565b8281036060840152611e9e818661194a565b90508281036080840152611eb2818561164a565b98975050505050505050565b600060208284031215611ed057600080fd5b8151611606816115d0565b600060033d1115611ef45760046000803e5060005160e01c5b90565b600060443d1015611f055790565b6040516003193d81016004833e81513d67ffffffffffffffff8160248401118184111715611f3557505050505090565b8285019150815181811115611f4d5750505050505090565b843d8701016020828501011115611f675750505050505090565b611f766020828601018761169f565b509095945050505050565b60006001600160a01b03808816835280871660208401525084604083015283606083015260a06080830152611fb960a083018461164a565b97965050505050505056fea2646970667358221220bcff0665d5af597dcfaf09ec506cfa972130955246687bdf5042127c42bae41964736f6c63430008130033",
  "immutableReferences": {},
  "source": "// SPDX-License-Identifier: MIT\r\npragma solidity >=0.4.22 <0.9.0;\r\n\r\nimport \"@openzeppelin/contracts/token/ERC1155/ERC1155.sol\";\r\nimport \"@openzeppelin/contracts/utils/Strings.sol\";\r\n\r\ncontract CertificatoCorso is ERC1155 {\r\n\r\n    // Costruttore del Certificato \r\n    constructor()ERC1155(\"\"){}\r\n\r\n    // Struttura che contiene le informazioni del singolo Certificato \r\n    struct Certificato {\r\n        string nomeCorso; // Nome del Corso \r\n        string pubblicazioneData; // Data di Pubblicazione del Corso \r\n        string DateUtente;\r\n        string DateTeacher;\r\n        bytes32 firma; // Tale numero univoco viene prodotto dalla funzione di Hashing keccak256(abi.encodePackage(data));\r\n    }\r\n\r\n    // Questa struttura mi permette di associare ad ogni address un insieme di certificati\r\n    mapping(address => mapping(uint => Certificato)) public _infoUtenteWithCertificati;\r\n\r\n    // Questo evento mi permette di poter mandare un messaggio\r\n    event CertificatoCreatoFatto(uint idCertificato,address wallet,string certificatoToString);\r\n\r\n    function creaCertificato(\r\n        uint idCertificato,\r\n        string memory _nomeCorso,\r\n        string memory _pubblicazioneData,\r\n        string memory _infoUtente,\r\n        string memory _infoTeacher\r\n    ) public returns(bool){\r\n        // Verifico che l'id del certificato sia sempre >0 altrimenti non posso inserirlo\r\n        if(idCertificato<0){\r\n            return false;\r\n        }\r\n        // Crittografo la firma in maniera da renderla univoca\r\n        bytes32 firmaCertificato = keccak256(abi.encodePacked(_nomeCorso,_pubblicazioneData,_infoUtente,_infoTeacher,msg.sender));\r\n        // Creo il certificato \r\n         Certificato memory newCertificate = Certificato({\r\n            nomeCorso: _nomeCorso,\r\n            pubblicazioneData: _pubblicazioneData,\r\n            DateUtente: _infoUtente,\r\n            DateTeacher: _infoTeacher,\r\n            firma: firmaCertificato\r\n        });\r\n        // Inserisco il Certificato all'interno della mappa con quel determinato address\r\n        _infoUtenteWithCertificati[_msgSender()][idCertificato] = newCertificate;\r\n        // Costruisco la stringa da costruire\r\n        string memory newCertificateToString = CertificatoToString(newCertificate);\r\n        // Invia l'informazione all'address in questione evidenziando i dati costruiti nel certificato\r\n        emit CertificatoCreatoFatto(idCertificato,_msgSender(),newCertificateToString);\r\n        return true;\r\n    }\r\n\r\n    function CertificatoToString(Certificato memory certificato)private pure returns(string memory){\r\n       return string.concat(\r\n            certificato.nomeCorso, '-',\r\n            certificato.pubblicazioneData,'-',\r\n            certificato.DateUtente,'-',\r\n            certificato.DateTeacher,'-');\r\n    }\r\n\r\n    // Questa funzione mi permette di poter recuperare un certificato in base a chi mi ha mandato la richiesta e all'id che mi sta passado se questo ovviamente ce l'ha nella sua struttura\r\n    function getCertificato(uint idCertificato)public view returns(string memory){\r\n        require(idCertificato >0,\"L'id del certificato non e' valido \");\r\n        return CertificatoToString(_infoUtenteWithCertificati[_msgSender()][idCertificato]);\r\n    }\r\n\r\n\r\n\r\n\r\n}",
  "sourcePath": "C:\\Users\\umber\\Progetti\\ViLear-ERC1155\\ViLear-ERC1155\\vilear-course\\src\\main\\smart_contract\\contracts\\CertificatoCorsoViLear.sol",
  "compiler": {
    "name": "solc",
    "version": "0.8.19+commit.7dd6d404.Emscripten.clang"
  },
  "schemaVersion": "3.4.13",
  "updatedAt": "2023-03-16T19:51:33.746Z",
  "networkType": "ethereum",
  "devdoc": {
    "events": {
      "ApprovalForAll(address,address,bool)": {
        "details": "Emitted when `account` grants or revokes permission to `operator` to transfer their tokens, according to `approved`."
      },
      "TransferBatch(address,address,address,uint256[],uint256[])": {
        "details": "Equivalent to multiple {TransferSingle} events, where `operator`, `from` and `to` are the same for all transfers."
      },
      "TransferSingle(address,address,address,uint256,uint256)": {
        "details": "Emitted when `value` tokens of token type `id` are transferred from `from` to `to` by `operator`."
      },
      "URI(string,uint256)": {
        "details": "Emitted when the URI for token type `id` changes to `value`, if it is a non-programmatic URI. If an {URI} event was emitted for `id`, the standard https://eips.ethereum.org/EIPS/eip-1155#metadata-extensions[guarantees] that `value` will equal the value returned by {IERC1155MetadataURI-uri}."
      }
    },
    "kind": "dev",
    "methods": {
      "balanceOf(address,uint256)": {
        "details": "See {IERC1155-balanceOf}. Requirements: - `account` cannot be the zero address."
      },
      "balanceOfBatch(address[],uint256[])": {
        "details": "See {IERC1155-balanceOfBatch}. Requirements: - `accounts` and `ids` must have the same length."
      },
      "isApprovedForAll(address,address)": {
        "details": "See {IERC1155-isApprovedForAll}."
      },
      "safeBatchTransferFrom(address,address,uint256[],uint256[],bytes)": {
        "details": "See {IERC1155-safeBatchTransferFrom}."
      },
      "safeTransferFrom(address,address,uint256,uint256,bytes)": {
        "details": "See {IERC1155-safeTransferFrom}."
      },
      "setApprovalForAll(address,bool)": {
        "details": "See {IERC1155-setApprovalForAll}."
      },
      "supportsInterface(bytes4)": {
        "details": "See {IERC165-supportsInterface}."
      },
      "uri(uint256)": {
        "details": "See {IERC1155MetadataURI-uri}. This implementation returns the same URI for *all* token types. It relies on the token type ID substitution mechanism https://eips.ethereum.org/EIPS/eip-1155#metadata[defined in the EIP]. Clients calling this function must replace the `\\{id\\}` substring with the actual token type ID."
      }
    },
    "version": 1
  },
  "userdoc": {
    "kind": "user",
    "methods": {},
    "version": 1
  }
}